:020000020000FC
:100000000C947A000C9422000C9422000C94220090
:100010000C9422000C94FA030C942D040C942200EE
:100020000C9422000C9422000C9422000C942200C8
:100030000C9422000C9422000C9422000C942200B8
:100040000C94230018950F931F93052F0370152F01
:10005000107423952F3E31F5222733953F3031F030
:100060003E3181F03D32B1F00C945200103419F45D
:100070000E946F0001C09ABD0130B9F00230C1F09A
:100080000C945200103411F40E946F00003099F06B
:100090000C945200103411F40E946F00033081F070
:1000A0000C9452001F910F9118950E94F6030EC0F8
:1000B0000E9428020BC0103431F00E94230306C0B6
:1000C0000E94F10303C00E94940305C0152F107411
:1000D000103409F058BB222733270C94520090307B
:1000E00021F099279BBD9ABD03C090E19ABD9FE185
:1000F00098BB08950FEF0DBF00E10EBFE0E0F2E006
:1001000000271127103011F4008323C0113011F49F
:1001100001831FC0123011F402831BC0133011F48D
:10012000038317C0143011F4048313C0153011F485
:1001300005830FC0163011F406830BC0173011F47D
:10014000078307C0183011F4008703C0193009F481
:10015000018713951A30B1F600EF01BB002704BBED
:1001600005BB02E00BBB0000DA9A000000000000B3
:1001700003B3DA9807FDF7CF00270BBB0FEF04BBE3
:100180000FEF04BB0ABB08E91AE30150104000005E
:10019000000000000000C9F718E315BB00270BBBE7
:1001A0000000DA9A000000000000DA980000000069
:1001B000000004E010E101501040000000000000C9
:1001C0000000C9F718E315BB00270BBB0000DA9A43
:1001D000000000000000DA9800000000000004E6C3
:1001E00010E0015010400000000000000000C9F7BE
:1001F00018E315BB00270BBB0000DA9A00000000D3
:100200000000DA9800000000000015BB00270BBBBF
:100210000000DA9A000000000000DA9800000000F8
:100220000000002704BB05BB02E00BBB0000DA9A0C
:1002300000000000000003B3DA9807FDF7CF0027A5
:100240000BBB0FEF04BB18E015BB00270BBB000076
:10025000DA9A000000000000DA98000000000000B8
:10026000002704BB05BB02E00BBB0000DA9A0000CC
:100270000000000003B3DA9807FDF7CF00270BBB9F
:100280000FEF04BB11E015BB00270BBB0000DA9A8F
:10029000000000000000DA980000000000000027C5
:1002A00004BB05BB02E00BBB0000DA9A00000000B3
:1002B000000003B3DA9807FDF7CF00270BBB0FEF61
:1002C00004BB16E015BB00270BBB0000DA9A000048
:1002D00000000000DA98000000000000002704BBC6
:1002E00005BB02E00BBB0000DA9A00000000000032
:1002F00003B3DA9807FDF7CF00270BBB0FEF04BB62
:100300001EE015BB00270BBB0000DA9A00000000BE
:100310000000DA9800000000000010E3002704BB92
:1003200005BB02E00BBB0000DA9A000000000000F1
:1003300003B3DA9807FDF7CF00270BBB0FEF04BB21
:1003400015BB08E00BBB0000DA9A000000000000BB
:10035000DA980000000000000FEF07BB01E605BDC2
:1003600001E80FBD02E00EBD0AE00ABF09B7006355
:1003700009BF992722273327442758E058BB02E0BA
:1003800003BF01E007BF78948FEE772782BB0FEFA2
:100390000A95F1F700B30F700F3061F081E0662726
:1003A000102F182319F40DD00C94C4016395880FF5
:1003B0000C94D001733041F30894881F73950C940A
:1003C000C6017330B1F16330B1F110B31F7018235F
:1003D000E1F3062F000F060F070F0395102F0FEF05
:1003E000103011F4008323C0113011F401831FC0B9
:1003F000123011F402831BC0133011F4038317C0B1
:10040000143011F4048313C0153011F405830FC0A8
:10041000163011F406830BC0173011F4078307C0A0
:10042000183011F4008703C0193009F401870C94C7
:1004300027020C942702703021F0713031F00C94B7
:1004400027020E9411040C9427020FEF00830895E5
:1004500000E003BD5C7F1127103011F4008123C040
:10046000113011F401811FC0123011F402811BC040
:10047000133011F4038117C0143011F4048113C038
:10048000153011F405810FC0163011F406810BC030
:10049000173011F4078107C0183011F4008503C02C
:1004A000193009F40185003029F413951A30A1F6AA
:1004B00000E001C001E0003019F45F7E0C942203DB
:1004C000142F103011F4008123C0113011F4018178
:1004D0001FC0123011F402811BC0133011F40381CC
:1004E00017C0143011F4048113C0153011F40581C4
:1004F0000FC0163011F406810BC0173011F40781BC
:1005000007C0183011F4008503C0193009F40185C3
:10051000003021F00E9494030C942203142F052F25
:100520000870103031F0193041F00030D1F108304E
:1005300051F0003031F00C94FF02083011F00C94AF
:10054000FF020C9401031395103011F4008123C0B5
:10055000113011F401811FC0123011F402811BC04F
:10056000133011F4038117C0143011F4048113C047
:10057000153011F405810FC0163011F406810BC03F
:10058000173011F4078107C0183011F4008503C03B
:10059000193009F40185003091F51930A1F60C9459
:1005A00001031A95103011F4008123C0113011F4A9
:1005B00001811FC0123011F402811BC0133011F4ED
:1005C000038117C0143011F4048113C0153011F4E5
:1005D00005810FC0163011F406810BC0173011F4DD
:1005E000078107C0183011F4008503C0193009F4E1
:1005F0000185003021F41030A1F60C94010301E0D4
:1006000001C000E0003051F4052F0870083011F0EF
:10061000003011F0577F0AC0586006C0052F0870DF
:10062000083011F0003011F0439501C04A95052FB4
:100630000071003139F0052F0074003411F000E131
:100640000ABD50610895002704BB05BB02E00BBB47
:100650000000DA9A00000000000003B3DA9807FDFA
:10066000F7CF00270BBB0FEF04BB11E015BB002732
:100670000BBB0000DA9A000000000000DA980000CE
:1006800000000000002704BB05BB02E00BBB00001C
:10069000DA9A00000000000003B3DA9807FDF7CFF4
:1006A00000270BBB0FEF04BB142F00E3100F15BB8B
:1006B00008E00BBB0000DA9A000000000000DA98A6
:1006C000000000000000142F103011F4008123C03E
:1006D000113011F401811FC0123011F402811BC0CE
:1006E000133011F4038117C0143011F4048113C0C6
:1006F000153011F405810FC0163011F406810BC0BE
:10070000173011F4078107C0183011F4008503C0B9
:10071000193009F40185003089F1052F007100308E
:1007200071F100E10ABD2BC0142F103011F40081CB
:1007300023C0113011F401811FC0123011F4028165
:100740001BC0133011F4038117C0143011F404815D
:1007500013C0153011F405810FC0163011F4068155
:100760000BC0173011F4078107C0183011F4008551
:1007700003C0193009F40185003081F179F15F7E01
:100780005C7F5160142F0027103011F4008323C0C8
:10079000113011F401831FC0123011F402831BC009
:1007A000133011F4038317C0143011F4048313C001
:1007B000153011F405830FC0163011F406830BC0F9
:1007C000173011F4078307C0183011F4008703C0F5
:1007D000193009F401870AED03BD02C00E94280206
:1007E00008955C7F52600EE803BD089553600027B2
:1007F00003BD089500E117E2015010400000000021
:1008000000000000C9F70F931F93052F03700330FA
:1008100021F40E94F103222733271F910F9158BB27
:100820001895F894052F00710031A1F0052F037081
:10083000033029F410B31F701823E1F30BC000300C
:1008400019F0023009F006C00AED03BD5C7F51606B
:100850002227332758BB78940895002709BF002723
:1008600004BB05BB02E00BBB0000DA9A00000000ED
:10087000000003B3DA9807FDF7CF00270BBB0FEF9B
:1008800004BB11E015BB00270BBB0000DA9A000087
:1008900000000000DA98000000000000ECECF9E035
:1008A00029E01591002704BB05BB02E00BBB00004B
:1008B000DA9A00000000000003B3DA9807FDF7CFD2
:1008C00000270BBB0FEF04BB15BB08E00BBB000000
:1008D000DA9A000000000000DA9800000000000032
:1008E0002A952030F1F6002704BB05BB02E00BBBC4
:1008F0000000DA9A00000000000003B3DA9807FD58
:10090000F7CF00270BBB0FEF04BB10EC15BB002784
:100910000BBB0000DA9A000000000000DA9800002B
:1009200000000000E8EDF9E028E01591002704BB85
:1009300005BB02E00BBB0000DA9A000000000000DB
:1009400003B3DA9807FDF7CF00270BBB0FEF04BB0B
:1009500015BB08E00BBB0000DA9A000000000000A5
:10096000DA980000000000002A952030F1F603E03C
:100970000EBD5064882766270E946F00E0E0F2E019
:1009800022270FEF01930027019323952930E1F7E8
:10099000E0E0F2E0052F0370003031F0023021F08A
:1009A0000E94F1032227332778946395643140F441
:1009B000052F03700330E1F7F8CF8395843128F4D5
:1009C000052F03700030E1F7F8CFFFCF456D65725A
:1009D00067656E637920202043616C6C2030303075
:0409E0002020202093
:00000001FF
